:0300000002038672
:10000300C0E0C0D0C000C001C002E4F538F539F546
:100013003AF53BF53C7A20E533A2E779047830E6FC
:1000230033F608D9FA79057838E636D4F608D9F9DB
:10003300DAE5D002D001D000D0D0D0E022C0E0C0B9
:10004300D0C000C001C002E4F538F539F53AF53BFC
:10005300F53C7A20E533A2E779047830E633F608F5
:10006300D9FA79057838C0D0E6243320E70224D0C2
:1000730020E30224FDD0D033F608D9EADAD6D00241
:10008300D001D000D0D0D0E022C0E0C0D0C000C0AA
:1000930001C0027A207905C3783CE613C0D030E76B
:1000A3000224D030E30224FDF618D0D0D9EC790431
:1000B3007833E613F618D9FADADBD002D001D00090
:1000C300D0D0D0E022C0E0C0D0E5302534F530E513
:1000D300313535F531E5323536F532E5333537F53A
:1000E30033D0D0D0E022C0E0C0D0C3E5309534F5A2
:1000F30030E5319535F531E5329536F532E5339511
:1001030037F533D0D0D0E022C0E0C0D0C3E530957E
:1001130034E5319535E5329536E53395379200D0A0
:10012300D0D0E022C0E0C0D0C3E5349530E53595AA
:1001330031E5369532E53795339200D0D0D0E022C1
:10014300C0E0C0D0C200C3E53495307014E53595E6
:1001530031700EE53695327008E53795337002D26B
:1001630000D0D0D0E0221201432000030201272255
:1001730012014320000302010B22C0E0C0F0C0D0F3
:10018300C000C001C002C003E5308534F0A4F8A963
:10019300F0E5318534F0A429F9E435F0FAE530854A
:1001A30035F0A429F9E5F03AFAE433FBE532853476
:1001B300F0A42AFAE5F03BFBE5318535F0A42AFAF1
:1001C300E5F03BFBE5308536F0A42AFAE5F03BFB8E
:1001D300E5338534F0A42BFBE5328535F0A42BFB06
:1001E300E5318536F0A42BFBE5308537F0A42BFBF6
:1001F3008B338A3289318830D003D002D001D000CA
:10020300D0D0D0F0D0E022C0E0C0D0C000C001C048
:1002130002C003C0047C20E4F8F9FAFBC3E53033E1
:10022300F530E53133F531E53233F532E53333F586
:1002330033E833F8E933F9EA33FAEB33FBC3E895F0
:1002430034E99535EA9536EB95374013E89534F85C
:10025300E99535F9EA9536FAEB9537FB433001DC3E
:10026300BBD004D003D002D001D000D0D0D0E02244
:10027300C00078B10000D8FCD00022C000C00179D2
:100283002D78A6D8FED9FADAF6D001D00022D2937F
:10029300120273C29322A2E792B5A2E692B4A2E538
:1002A30092B3A2E492B2120291120273A2E392B544
:1002B300A2E292B4A2E192B3A2E092B2120291221C
:1002C300D291020299C291020299C293C2927433EB
:1002D3001202C874331202C874321202C87428128C
:1002E30002C8740C1202C874011202C8C0027A0256
:1002F30012027ED00222E49360061202C3A380F6A8
:1003030022444044800202C8C0E0E8C4540F443091
:100313001202C3E8540F44301202C3D0E02279DE44
:1003230078A6D8FED9FA438780759852759B0075D5
:100333009AF4759B1E223099FDC299F59922E49394
:100343006006120339A380F622C0E0E8C4540F44C8
:1003530030120339E8540F4430120339D0E022C07D
:10036300E0740614120306D0E0753042120003C095
:1003730000A838781712034CD0009003831203416E
:0E0383000D0A0075817F12032112036280FEB5
:00000001FF
